{
  "contractName": "MediChain",
  "abi": [
    {
      "anonymous": false,
      "inputs": [
        {
          "indexed": false,
          "internalType": "address",
          "name": "user",
          "type": "address"
        }
      ],
      "name": "registerUser",
      "type": "event"
    },
    {
      "constant": true,
      "inputs": [
        {
          "internalType": "uint256",
          "name": "",
          "type": "uint256"
        }
      ],
      "name": "insurers",
      "outputs": [
        {
          "internalType": "address",
          "name": "insurerAddress",
          "type": "address"
        }
      ],
      "payable": false,
      "stateMutability": "view",
      "type": "function"
    },
    {
      "constant": true,
      "inputs": [
        {
          "internalType": "uint256",
          "name": "",
          "type": "uint256"
        }
      ],
      "name": "policyholders",
      "outputs": [
        {
          "internalType": "address",
          "name": "policyholderAddress",
          "type": "address"
        }
      ],
      "payable": false,
      "stateMutability": "view",
      "type": "function"
    },
    {
      "constant": false,
      "inputs": [
        {
          "internalType": "address",
          "name": "policyholder",
          "type": "address"
        }
      ],
      "name": "registerPolicyholder",
      "outputs": [
        {
          "internalType": "uint256",
          "name": "",
          "type": "uint256"
        }
      ],
      "payable": false,
      "stateMutability": "nonpayable",
      "type": "function"
    },
    {
      "constant": false,
      "inputs": [
        {
          "internalType": "address",
          "name": "insurer",
          "type": "address"
        }
      ],
      "name": "registerInsurer",
      "outputs": [
        {
          "internalType": "uint256",
          "name": "",
          "type": "uint256"
        }
      ],
      "payable": false,
      "stateMutability": "nonpayable",
      "type": "function"
    },
    {
      "constant": false,
      "inputs": [
        {
          "internalType": "uint256",
          "name": "medicalAmount",
          "type": "uint256"
        },
        {
          "internalType": "uint256",
          "name": "claimDate",
          "type": "uint256"
        },
        {
          "internalType": "string",
          "name": "token",
          "type": "string"
        },
        {
          "internalType": "string",
          "name": "medicalRecordRefIds",
          "type": "string"
        }
      ],
      "name": "submitClaim",
      "outputs": [],
      "payable": false,
      "stateMutability": "nonpayable",
      "type": "function"
    }
  ],
  "bytecode": "0x6080604052336000806101000a81548173ffffffffffffffffffffffffffffffffffffffff021916908373ffffffffffffffffffffffffffffffffffffffff16021790555034801561005057600080fd5b50610f49806100606000396000f3fe608060405234801561001057600080fd5b50600436106100575760003560e01c8063050a54ac1461005c578063a1f4ee07146100b4578063d291babd1461010c578063e5ee64c314610272578063ed130a21146102e0575b600080fd5b61009e6004803603602081101561007257600080fd5b81019080803573ffffffffffffffffffffffffffffffffffffffff16906020019092919050505061034e565b6040518082815260200191505060405180910390f35b6100f6600480360360208110156100ca57600080fd5b81019080803573ffffffffffffffffffffffffffffffffffffffff169060200190929190505050610692565b6040518082815260200191505060405180910390f35b6102706004803603608081101561012257600080fd5b8101908080359060200190929190803590602001909291908035906020019064010000000081111561015357600080fd5b82018360208201111561016557600080fd5b8035906020019184600183028401116401000000008311171561018757600080fd5b91908080601f016020809104026020016040519081016040528093929190818152602001838380828437600081840152601f19601f820116905080830192505050505050509192919290803590602001906401000000008111156101ea57600080fd5b8201836020820111156101fc57600080fd5b8035906020019184600183028401116401000000008311171561021e57600080fd5b91908080601f016020809104026020016040519081016040528093929190818152602001838380828437600081840152601f19601f8201169050808301925050505050505091929192905050506109d6565b005b61029e6004803603602081101561028857600080fd5b8101908080359060200190929190505050610c65565b604051808273ffffffffffffffffffffffffffffffffffffffff1673ffffffffffffffffffffffffffffffffffffffff16815260200191505060405180910390f35b61030c600480360360208110156102f657600080fd5b8101908080359060200190929190505050610cb0565b604051808273ffffffffffffffffffffffffffffffffffffffff1673ffffffffffffffffffffffffffffffffffffffff16815260200191505060405180910390f35b60008060009054906101000a900473ffffffffffffffffffffffffffffffffffffffff1673ffffffffffffffffffffffffffffffffffffffff163373ffffffffffffffffffffffffffffffffffffffff16146103f5576040517f08c379a000000000000000000000000000000000000000000000000000000000815260040180806020018281038252602e815260200180610ebe602e913960400191505060405180910390fd5b600073ffffffffffffffffffffffffffffffffffffffff16600560008473ffffffffffffffffffffffffffffffffffffffff1673ffffffffffffffffffffffffffffffffffffffff16815260200190815260200160002060000160009054906101000a900473ffffffffffffffffffffffffffffffffffffffff1673ffffffffffffffffffffffffffffffffffffffff16146104dc576040517f08c379a0000000000000000000000000000000000000000000000000000000008152600401808060200182810382526024815260200180610e9a6024913960400191505060405180910390fd5b6104e4610cfb565b82816000019073ffffffffffffffffffffffffffffffffffffffff16908173ffffffffffffffffffffffffffffffffffffffff16815250506004819080600181540180825580915050906001820390600052602060002090600302016000909192909190915060008201518160000160006101000a81548173ffffffffffffffffffffffffffffffffffffffff021916908373ffffffffffffffffffffffffffffffffffffffff16021790555050505080600560008573ffffffffffffffffffffffffffffffffffffffff1673ffffffffffffffffffffffffffffffffffffffff16815260200190815260200160002060008201518160000160006101000a81548173ffffffffffffffffffffffffffffffffffffffff021916908373ffffffffffffffffffffffffffffffffffffffff1602179055509050507f2199d5cdfb910e5deeddb434c39aca55fbcee035f4e810a6a52f6425e297267f83604051808273ffffffffffffffffffffffffffffffffffffffff1673ffffffffffffffffffffffffffffffffffffffff16815260200191505060405180910390a1600160048054905003915050919050565b60008060009054906101000a900473ffffffffffffffffffffffffffffffffffffffff1673ffffffffffffffffffffffffffffffffffffffff163373ffffffffffffffffffffffffffffffffffffffff1614610739576040517f08c379a000000000000000000000000000000000000000000000000000000000815260040180806020018281038252602e815260200180610ebe602e913960400191505060405180910390fd5b600073ffffffffffffffffffffffffffffffffffffffff16600360008473ffffffffffffffffffffffffffffffffffffffff1673ffffffffffffffffffffffffffffffffffffffff16815260200190815260200160002060000160009054906101000a900473ffffffffffffffffffffffffffffffffffffffff1673ffffffffffffffffffffffffffffffffffffffff1614610820576040517f08c379a0000000000000000000000000000000000000000000000000000000008152600401808060200182810382526029815260200180610eec6029913960400191505060405180910390fd5b610828610d24565b82816000019073ffffffffffffffffffffffffffffffffffffffff16908173ffffffffffffffffffffffffffffffffffffffff16815250506002819080600181540180825580915050906001820390600052602060002090600202016000909192909190915060008201518160000160006101000a81548173ffffffffffffffffffffffffffffffffffffffff021916908373ffffffffffffffffffffffffffffffffffffffff16021790555050505080600360008573ffffffffffffffffffffffffffffffffffffffff1673ffffffffffffffffffffffffffffffffffffffff16815260200190815260200160002060008201518160000160006101000a81548173ffffffffffffffffffffffffffffffffffffffff021916908373ffffffffffffffffffffffffffffffffffffffff1602179055509050507f2199d5cdfb910e5deeddb434c39aca55fbcee035f4e810a6a52f6425e297267f83604051808273ffffffffffffffffffffffffffffffffffffffff1673ffffffffffffffffffffffffffffffffffffffff16815260200191505060405180910390a1600160028054905003915050919050565b6109de610d4d565b6040518061016001604052808581526020013373ffffffffffffffffffffffffffffffffffffffff16815260200186815260200186815260200160006003811115610a2557fe5b8152602001604051806020016040528060008152508152602001600073ffffffffffffffffffffffffffffffffffffffff168152602001600073ffffffffffffffffffffffffffffffffffffffff1681526020016040518060200160405280600081525081526020018481526020018381525090506001819080600181540180825580915050906001820390600052602060002090600b0201600090919290919091506000820151816000015560208201518160010160006101000a81548173ffffffffffffffffffffffffffffffffffffffff021916908373ffffffffffffffffffffffffffffffffffffffff160217905550604082015181600201556060820151816003015560808201518160040160006101000a81548160ff02191690836003811115610b5157fe5b021790555060a0820151816005019080519060200190610b72929190610df4565b5060c08201518160060160006101000a81548173ffffffffffffffffffffffffffffffffffffffff021916908373ffffffffffffffffffffffffffffffffffffffff16021790555060e08201518160070160006101000a81548173ffffffffffffffffffffffffffffffffffffffff021916908373ffffffffffffffffffffffffffffffffffffffff160217905550610100820151816008019080519060200190610c1e929190610df4565b50610120820151816009019080519060200190610c3c929190610df4565b5061014082015181600a019080519060200190610c5a929190610df4565b505050505050505050565b60048181548110610c7257fe5b90600052602060002090600302016000915090508060000160009054906101000a900473ffffffffffffffffffffffffffffffffffffffff16905081565b60028181548110610cbd57fe5b90600052602060002090600202016000915090508060000160009054906101000a900473ffffffffffffffffffffffffffffffffffffffff16905081565b6040518060200160405280600073ffffffffffffffffffffffffffffffffffffffff1681525090565b6040518060200160405280600073ffffffffffffffffffffffffffffffffffffffff1681525090565b60405180610160016040528060008152602001600073ffffffffffffffffffffffffffffffffffffffff168152602001600081526020016000815260200160006003811115610d9857fe5b815260200160608152602001600073ffffffffffffffffffffffffffffffffffffffff168152602001600073ffffffffffffffffffffffffffffffffffffffff1681526020016060815260200160608152602001606081525090565b828054600181600116156101000203166002900490600052602060002090601f016020900481019282601f10610e3557805160ff1916838001178555610e63565b82800160010185558215610e63579182015b82811115610e62578251825591602001919060010190610e47565b5b509050610e709190610e74565b5090565b610e9691905b80821115610e92576000816000905550600101610e7a565b5090565b9056fe496e73757265722068617320616c7265616479206265656e2072656769737465726564214f6e6c79204d656469436861696e206f776e65722063616e20706572666f726d20726567697374726174696f6e21506f6c696379686f6c6465722068617320616c7265616479206265656e207265676973746572656421a265627a7a72315820bf87727f882351f8862178ea84b8dd41960e93a97bcda6b667fc19a97a61730d64736f6c63430005100032",
  "source": "pragma solidity ^0.5.0;\n\n// 1. Do not keep track of policy details\n// 2. There will be insurer staff accounts (mainly used to keep track of who approve/reject claims)\n// 3. Policyholder/Insurer accounts will be preloaded.\n//    - May or may not do registration.\ncontract MediChain {\n    address _owner = msg.sender; // System Adminstrator\n\n    enum ClaimStatus { PENDING, PROCESSED, APPROVED, REJECTED }\n    \n    event registerUser(address user);\n\n    modifier contractOwnerOnly() {\n        require(msg.sender == _owner, \"Only MediChain owner can perform registration!\");\n        _;\n    }\n\n    struct Claim {\n        uint256 claimDate;\n        address claimant;\n        uint256 medicalAmount;\n        uint256 claimAmount;\n        ClaimStatus claimStatus;\n        string remarks;\n        address verifier; // 1st insurer to verify and process\n        address endorse; // 2nd insurer to approve/reject\n        string policyNumber;\n        string token;\n        string medicalRecordRefIds; // Array not well supported, use \";\" to delimit different Ids\n    }\n\n    struct Policyholder {\n        address policyholderAddress;\n        mapping(uint256 => Claim) submittedClaims;\n    }\n\n    struct Insurer {\n        address insurerAddress;\n        mapping(uint256 => Claim) verifiedClaims; // Claims that were processed and verified by this insurer\n        mapping(uint256 => Claim) endorsedClaims; // Claims that were approved or rejected by this insurer\n    }\n\n    Claim[] private claims;\n\n    Policyholder[] public policyholders; // For off-chain database to easily retrieve policyholder details\n    mapping(address => Policyholder) private policyholdersMapping; // To allow fast checking of the existence of policyholder\n    \n    Insurer[] public insurers;\n    mapping(address => Insurer) private insurersMapping;\n\n    function registerPolicyholder(address policyholder) public contractOwnerOnly returns (uint256) {\n        require(policyholdersMapping[policyholder].policyholderAddress == address(0), \"Policyholder has already been registered!\");\n\n        Policyholder memory newPolicyholder;\n        newPolicyholder.policyholderAddress = policyholder;\n\n        policyholders.push(newPolicyholder);\n        policyholdersMapping[policyholder] = newPolicyholder;\n\n        emit registerUser(policyholder);\n\n        return policyholders.length - 1;\n    }\n\n    function registerInsurer(address insurer) public contractOwnerOnly returns (uint256) {\n        require(insurersMapping[insurer].insurerAddress == address(0), \"Insurer has already been registered!\");\n\n        Insurer memory newInsurer;\n        newInsurer.insurerAddress = insurer;\n\n        insurers.push(newInsurer);\n        insurersMapping[insurer] = newInsurer;\n\n        emit registerUser(insurer);\n\n        return insurers.length - 1;\n    }\n\n    function submitClaim(uint256 medicalAmount, uint256 claimDate, string memory token, string memory medicalRecordRefIds) public {\n        Claim memory newClaim = Claim(\n            claimDate,\n            msg.sender,\n            medicalAmount,\n            medicalAmount, // Originally, claimAmount == medicalAmount (but subject to approval and changes)\n            ClaimStatus.PENDING,\n            \"\",\n            address(0),\n            address(0),\n            \"\",\n            token,\n            medicalRecordRefIds\n        );\n        \n        claims.push(newClaim);\n    }\n\n    // To be done by insurer\n    // function approveClaim(uint256 claimId, string memory remarks) public {\n    //     require(claimId < claimRecords.length - 1, \"Invalid claim record ID!\");\n    //     ClaimRecord memory claimRecord = claimRecords[claimId - 1];\n\n    //     require(claimRecord.approver == address(0) && claimRecord.rejecter == address(0), \"This claim record has already been processed!\");\n    //     claimRecord.remarks = remarks;\n    //     claimRecord.approver = msg.sender;\n    //     claimRecord.claimStatus = ClaimStatus.APPROVED;\n\n    // }\n}\n\n\n\n\n",
  "sourcePath": "/Users/tanweekeat/OneDrive - National University of Singapore/NUS/AY2021S2/IS4302/Group Project/medichain/contracts/MediChain.sol",
  "compiler": {
    "name": "solc",
    "version": "0.5.16+commit.9c3226ce.Emscripten.clang"
  },
  "schemaVersion": "3.3.3",
  "updatedAt": "2021-03-28T05:29:31.008Z",
  "devdoc": {
    "methods": {}
  },
  "userdoc": {
    "methods": {}
  }
}