{
  "contractName": "MediChain",
  "abi": [
    {
      "anonymous": false,
      "inputs": [
        {
          "indexed": false,
          "internalType": "address",
          "name": "user",
          "type": "address"
        }
      ],
      "name": "registerUser",
      "type": "event"
    },
    {
      "constant": true,
      "inputs": [
        {
          "internalType": "uint256",
          "name": "",
          "type": "uint256"
        }
      ],
      "name": "insurers",
      "outputs": [
        {
          "internalType": "address",
          "name": "insurerAddress",
          "type": "address"
        }
      ],
      "payable": false,
      "stateMutability": "view",
      "type": "function"
    },
    {
      "constant": true,
      "inputs": [
        {
          "internalType": "uint256",
          "name": "",
          "type": "uint256"
        }
      ],
      "name": "policyholders",
      "outputs": [
        {
          "internalType": "address",
          "name": "policyholderAddress",
          "type": "address"
        }
      ],
      "payable": false,
      "stateMutability": "view",
      "type": "function"
    },
    {
      "constant": false,
      "inputs": [
        {
          "internalType": "address",
          "name": "policyholder",
          "type": "address"
        }
      ],
      "name": "registerPolicyholder",
      "outputs": [],
      "payable": false,
      "stateMutability": "nonpayable",
      "type": "function"
    },
    {
      "constant": false,
      "inputs": [
        {
          "internalType": "address",
          "name": "insurer",
          "type": "address"
        }
      ],
      "name": "registerInsurer",
      "outputs": [],
      "payable": false,
      "stateMutability": "nonpayable",
      "type": "function"
    },
    {
      "constant": false,
      "inputs": [
        {
          "internalType": "uint256",
          "name": "medicalAmount",
          "type": "uint256"
        },
        {
          "internalType": "uint256",
          "name": "claimDate",
          "type": "uint256"
        },
        {
          "internalType": "string",
          "name": "token",
          "type": "string"
        },
        {
          "internalType": "string",
          "name": "medicalRecordRefIds",
          "type": "string"
        }
      ],
      "name": "submitClaim",
      "outputs": [],
      "payable": false,
      "stateMutability": "nonpayable",
      "type": "function"
    }
  ],
  "bytecode": "0x6080604052336000806101000a81548173ffffffffffffffffffffffffffffffffffffffff021916908373ffffffffffffffffffffffffffffffffffffffff16021790555034801561005057600080fd5b50610f03806100606000396000f3fe608060405234801561001057600080fd5b50600436106100575760003560e01c8063050a54ac1461005c578063a1f4ee07146100a0578063d291babd146100e4578063e5ee64c31461024a578063ed130a21146102b8575b600080fd5b61009e6004803603602081101561007257600080fd5b81019080803573ffffffffffffffffffffffffffffffffffffffff169060200190929190505050610326565b005b6100e2600480360360208110156100b657600080fd5b81019080803573ffffffffffffffffffffffffffffffffffffffff16906020019092919050505061065b565b005b610248600480360360808110156100fa57600080fd5b8101908080359060200190929190803590602001909291908035906020019064010000000081111561012b57600080fd5b82018360208201111561013d57600080fd5b8035906020019184600183028401116401000000008311171561015f57600080fd5b91908080601f016020809104026020016040519081016040528093929190818152602001838380828437600081840152601f19601f820116905080830192505050505050509192919290803590602001906401000000008111156101c257600080fd5b8201836020820111156101d457600080fd5b803590602001918460018302840111640100000000831117156101f657600080fd5b91908080601f016020809104026020016040519081016040528093929190818152602001838380828437600081840152601f19601f820116905080830192505050505050509192919290505050610990565b005b6102766004803603602081101561026057600080fd5b8101908080359060200190929190505050610c1f565b604051808273ffffffffffffffffffffffffffffffffffffffff1673ffffffffffffffffffffffffffffffffffffffff16815260200191505060405180910390f35b6102e4600480360360208110156102ce57600080fd5b8101908080359060200190929190505050610c6a565b604051808273ffffffffffffffffffffffffffffffffffffffff1673ffffffffffffffffffffffffffffffffffffffff16815260200191505060405180910390f35b6000809054906101000a900473ffffffffffffffffffffffffffffffffffffffff1673ffffffffffffffffffffffffffffffffffffffff163373ffffffffffffffffffffffffffffffffffffffff16146103cb576040517f08c379a000000000000000000000000000000000000000000000000000000000815260040180806020018281038252602e815260200180610e78602e913960400191505060405180910390fd5b600073ffffffffffffffffffffffffffffffffffffffff16600560008373ffffffffffffffffffffffffffffffffffffffff1673ffffffffffffffffffffffffffffffffffffffff16815260200190815260200160002060000160009054906101000a900473ffffffffffffffffffffffffffffffffffffffff1673ffffffffffffffffffffffffffffffffffffffff16146104b2576040517f08c379a0000000000000000000000000000000000000000000000000000000008152600401808060200182810382526024815260200180610e546024913960400191505060405180910390fd5b6104ba610cb5565b81816000019073ffffffffffffffffffffffffffffffffffffffff16908173ffffffffffffffffffffffffffffffffffffffff16815250506004819080600181540180825580915050906001820390600052602060002090600302016000909192909190915060008201518160000160006101000a81548173ffffffffffffffffffffffffffffffffffffffff021916908373ffffffffffffffffffffffffffffffffffffffff16021790555050505080600560008473ffffffffffffffffffffffffffffffffffffffff1673ffffffffffffffffffffffffffffffffffffffff16815260200190815260200160002060008201518160000160006101000a81548173ffffffffffffffffffffffffffffffffffffffff021916908373ffffffffffffffffffffffffffffffffffffffff1602179055509050507f2199d5cdfb910e5deeddb434c39aca55fbcee035f4e810a6a52f6425e297267f82604051808273ffffffffffffffffffffffffffffffffffffffff1673ffffffffffffffffffffffffffffffffffffffff16815260200191505060405180910390a15050565b6000809054906101000a900473ffffffffffffffffffffffffffffffffffffffff1673ffffffffffffffffffffffffffffffffffffffff163373ffffffffffffffffffffffffffffffffffffffff1614610700576040517f08c379a000000000000000000000000000000000000000000000000000000000815260040180806020018281038252602e815260200180610e78602e913960400191505060405180910390fd5b600073ffffffffffffffffffffffffffffffffffffffff16600360008373ffffffffffffffffffffffffffffffffffffffff1673ffffffffffffffffffffffffffffffffffffffff16815260200190815260200160002060000160009054906101000a900473ffffffffffffffffffffffffffffffffffffffff1673ffffffffffffffffffffffffffffffffffffffff16146107e7576040517f08c379a0000000000000000000000000000000000000000000000000000000008152600401808060200182810382526029815260200180610ea66029913960400191505060405180910390fd5b6107ef610cde565b81816000019073ffffffffffffffffffffffffffffffffffffffff16908173ffffffffffffffffffffffffffffffffffffffff16815250506002819080600181540180825580915050906001820390600052602060002090600202016000909192909190915060008201518160000160006101000a81548173ffffffffffffffffffffffffffffffffffffffff021916908373ffffffffffffffffffffffffffffffffffffffff16021790555050505080600360008473ffffffffffffffffffffffffffffffffffffffff1673ffffffffffffffffffffffffffffffffffffffff16815260200190815260200160002060008201518160000160006101000a81548173ffffffffffffffffffffffffffffffffffffffff021916908373ffffffffffffffffffffffffffffffffffffffff1602179055509050507f2199d5cdfb910e5deeddb434c39aca55fbcee035f4e810a6a52f6425e297267f82604051808273ffffffffffffffffffffffffffffffffffffffff1673ffffffffffffffffffffffffffffffffffffffff16815260200191505060405180910390a15050565b610998610d07565b6040518061016001604052808581526020013373ffffffffffffffffffffffffffffffffffffffff168152602001868152602001868152602001600060038111156109df57fe5b8152602001604051806020016040528060008152508152602001600073ffffffffffffffffffffffffffffffffffffffff168152602001600073ffffffffffffffffffffffffffffffffffffffff1681526020016040518060200160405280600081525081526020018481526020018381525090506001819080600181540180825580915050906001820390600052602060002090600b0201600090919290919091506000820151816000015560208201518160010160006101000a81548173ffffffffffffffffffffffffffffffffffffffff021916908373ffffffffffffffffffffffffffffffffffffffff160217905550604082015181600201556060820151816003015560808201518160040160006101000a81548160ff02191690836003811115610b0b57fe5b021790555060a0820151816005019080519060200190610b2c929190610dae565b5060c08201518160060160006101000a81548173ffffffffffffffffffffffffffffffffffffffff021916908373ffffffffffffffffffffffffffffffffffffffff16021790555060e08201518160070160006101000a81548173ffffffffffffffffffffffffffffffffffffffff021916908373ffffffffffffffffffffffffffffffffffffffff160217905550610100820151816008019080519060200190610bd8929190610dae565b50610120820151816009019080519060200190610bf6929190610dae565b5061014082015181600a019080519060200190610c14929190610dae565b505050505050505050565b60048181548110610c2c57fe5b90600052602060002090600302016000915090508060000160009054906101000a900473ffffffffffffffffffffffffffffffffffffffff16905081565b60028181548110610c7757fe5b90600052602060002090600202016000915090508060000160009054906101000a900473ffffffffffffffffffffffffffffffffffffffff16905081565b6040518060200160405280600073ffffffffffffffffffffffffffffffffffffffff1681525090565b6040518060200160405280600073ffffffffffffffffffffffffffffffffffffffff1681525090565b60405180610160016040528060008152602001600073ffffffffffffffffffffffffffffffffffffffff168152602001600081526020016000815260200160006003811115610d5257fe5b815260200160608152602001600073ffffffffffffffffffffffffffffffffffffffff168152602001600073ffffffffffffffffffffffffffffffffffffffff1681526020016060815260200160608152602001606081525090565b828054600181600116156101000203166002900490600052602060002090601f016020900481019282601f10610def57805160ff1916838001178555610e1d565b82800160010185558215610e1d579182015b82811115610e1c578251825591602001919060010190610e01565b5b509050610e2a9190610e2e565b5090565b610e5091905b80821115610e4c576000816000905550600101610e34565b5090565b9056fe496e73757265722068617320616c7265616479206265656e2072656769737465726564214f6e6c79204d656469436861696e206f776e65722063616e20706572666f726d20726567697374726174696f6e21506f6c696379686f6c6465722068617320616c7265616479206265656e207265676973746572656421a265627a7a72315820526dad7795e9c180022bc0c6bc2e3cf75a0cfec641cf98f22ed88d82498b5b5464736f6c63430005100032",
  "source": "pragma solidity ^0.5.0;\n\n// 1. Do not keep track of policy details\n// 2. There will be insurer staff accounts (mainly used to keep track of who approve/reject claims)\n// 3. Policyholder/Insurer accounts will be preloaded.\n//    - May or may not do registration.\ncontract MediChain {\n    address _owner = msg.sender; // System Adminstrator\n\n    enum ClaimStatus { PENDING, PROCESSED, APPROVED, REJECTED }\n    \n    event registerUser(address user);\n\n    modifier contractOwnerOnly() {\n        require(msg.sender == _owner, \"Only MediChain owner can perform registration!\");\n        _;\n    }\n\n    struct Claim {\n        uint256 claimDate;\n        address claimant;\n        uint256 medicalAmount;\n        uint256 claimAmount;\n        ClaimStatus claimStatus;\n        string remarks;\n        address verifier; // 1st insurer to verify and process\n        address endorse; // 2nd insurer to approve/reject\n        string policyNumber;\n        string token;\n        string medicalRecordRefIds; // Array not well supported, use \";\" to delimit different Ids\n    }\n\n    struct Policyholder {\n        address policyholderAddress;\n        mapping(uint256 => Claim) submittedClaims;\n    }\n\n    struct Insurer {\n        address insurerAddress;\n        mapping(uint256 => Claim) verifiedClaims; // Claims that were processed and verified by this insurer\n        mapping(uint256 => Claim) endorsedClaims; // Claims that were approved or rejected by this insurer\n    }\n\n    Claim[] private claims;\n\n    Policyholder[] public policyholders; // For off-chain database to easily retrieve policyholder details\n    mapping(address => Policyholder) private policyholdersMapping; // To allow fast checking of the existence of policyholder\n    \n    Insurer[] public insurers;\n    mapping(address => Insurer) private insurersMapping;\n\n    function registerPolicyholder(address policyholder) public contractOwnerOnly {\n        require(policyholdersMapping[policyholder].policyholderAddress == address(0), \"Policyholder has already been registered!\");\n\n        Policyholder memory newPolicyholder;\n        newPolicyholder.policyholderAddress = policyholder;\n\n        policyholders.push(newPolicyholder);\n        policyholdersMapping[policyholder] = newPolicyholder;\n\n        emit registerUser(policyholder);\n    }\n\n    function registerInsurer(address insurer) public contractOwnerOnly {\n        require(insurersMapping[insurer].insurerAddress == address(0), \"Insurer has already been registered!\");\n\n        Insurer memory newInsurer;\n        newInsurer.insurerAddress = insurer;\n\n        insurers.push(newInsurer);\n        insurersMapping[insurer] = newInsurer;\n\n        emit registerUser(insurer);\n    }\n\n    function submitClaim(uint256 medicalAmount, uint256 claimDate, string memory token, string memory medicalRecordRefIds) public {\n        Claim memory newClaim = Claim(\n            claimDate,\n            msg.sender,\n            medicalAmount,\n            medicalAmount, // Originally, claimAmount == medicalAmount (but subject to approval and changes)\n            ClaimStatus.PENDING,\n            \"\",\n            address(0),\n            address(0),\n            \"\",\n            token,\n            medicalRecordRefIds\n        );\n        \n        claims.push(newClaim);\n    }\n\n    // To be done by insurer\n    // function approveClaim(uint256 claimId, string memory remarks) public {\n    //     require(claimId < claimRecords.length - 1, \"Invalid claim record ID!\");\n    //     ClaimRecord memory claimRecord = claimRecords[claimId - 1];\n\n    //     require(claimRecord.approver == address(0) && claimRecord.rejecter == address(0), \"This claim record has already been processed!\");\n    //     claimRecord.remarks = remarks;\n    //     claimRecord.approver = msg.sender;\n    //     claimRecord.claimStatus = ClaimStatus.APPROVED;\n\n    // }\n}\n\n\n\n\n",
  "sourcePath": "/Users/tanweekeat/OneDrive - National University of Singapore/NUS/AY2021S2/IS4302/Group Project/medichain/contracts/MediChain.sol",
  "compiler": {
    "name": "solc",
    "version": "0.5.16+commit.9c3226ce.Emscripten.clang"
  },
  "schemaVersion": "3.3.3",
  "updatedAt": "2021-03-28T05:09:37.379Z",
  "networkType": "ethereum",
  "devdoc": {
    "methods": {}
  },
  "userdoc": {
    "methods": {}
  }
}